{
  "contractName": "AVToken",
  "abi": [
    {
      "constant": true,
      "inputs": [],
      "name": "totalSupply",
      "outputs": [
        {
          "name": "",
          "type": "uint256"
        }
      ],
      "payable": false,
      "stateMutability": "view",
      "type": "function"
    },
    {
      "inputs": [],
      "payable": false,
      "stateMutability": "nonpayable",
      "type": "constructor"
    }
  ],
  "bytecode": "0x6080604052348015600f57600080fd5b50620186a0600081905550607b806100286000396000f3fe6080604052348015600f57600080fd5b506004361060285760003560e01c806318160ddd14602d575b600080fd5b60336049565b6040518082815260200191505060405180910390f35b6000548156fea165627a7a72305820714c9e7fcad14f8def350b652edb3de982ab738da0fb27f96b7ec263ee3d81f40029",
  "source": "pragma solidity ^0.5.8;\n\ncontract AVToken {\n\t// Constructer\n\t// Set the token numbers\n\t// Read the total number of tokens\n\n\tuint256 public totalSupply;\n\n\tconstructor () public {\n\t\ttotalSupply = 100000;\n\t}\n\n}",
  "sourcePath": "/Users/anandprakash/token_sale/contracts/AVToken.sol",
  "compiler": {
    "name": "solc",
    "version": "0.5.8+commit.23d335f2.Emscripten.clang"
  },
  "schemaVersion": "3.0.11",
  "updatedAt": "2019-07-04T05:22:08.442Z",
  "devdoc": {
    "methods": {}
  },
  "userdoc": {
    "methods": {}
  }
}